{
  "contractName": "Itemmanager",
  "abi": [
    {
      "anonymous": false,
      "inputs": [
        {
          "indexed": false,
          "internalType": "uint256",
          "name": "_itemindexed",
          "type": "uint256"
        },
        {
          "indexed": false,
          "internalType": "uint256",
          "name": "_step",
          "type": "uint256"
        },
        {
          "indexed": false,
          "internalType": "address",
          "name": "_address",
          "type": "address"
        }
      ],
      "name": "SupplyChainStep",
      "type": "event"
    },
    {
      "inputs": [],
      "name": "isowner",
      "outputs": [
        {
          "internalType": "bool",
          "name": "",
          "type": "bool"
        }
      ],
      "stateMutability": "view",
      "type": "function",
      "constant": true
    },
    {
      "inputs": [
        {
          "internalType": "uint256",
          "name": "",
          "type": "uint256"
        }
      ],
      "name": "items",
      "outputs": [
        {
          "internalType": "contract Item",
          "name": "_item",
          "type": "address"
        },
        {
          "internalType": "enum Itemmanager.SupplyChainSteps",
          "name": "_steps",
          "type": "uint8"
        },
        {
          "internalType": "string",
          "name": "_identifier",
          "type": "string"
        }
      ],
      "stateMutability": "view",
      "type": "function",
      "constant": true
    },
    {
      "inputs": [],
      "name": "owner",
      "outputs": [
        {
          "internalType": "address",
          "name": "",
          "type": "address"
        }
      ],
      "stateMutability": "view",
      "type": "function",
      "constant": true
    },
    {
      "inputs": [
        {
          "internalType": "string",
          "name": "_identifiers",
          "type": "string"
        },
        {
          "internalType": "uint256",
          "name": "_priceinweis",
          "type": "uint256"
        }
      ],
      "name": "createitem",
      "outputs": [],
      "stateMutability": "nonpayable",
      "type": "function"
    },
    {
      "inputs": [
        {
          "internalType": "uint256",
          "name": "_index",
          "type": "uint256"
        }
      ],
      "name": "triggerpayment",
      "outputs": [],
      "stateMutability": "payable",
      "type": "function",
      "payable": true
    },
    {
      "inputs": [
        {
          "internalType": "uint256",
          "name": "_index",
          "type": "uint256"
        }
      ],
      "name": "triggerDelivery",
      "outputs": [],
      "stateMutability": "nonpayable",
      "type": "function"
    }
  ],
  "bytecode": "0x608060405234801561001057600080fd5b50336000806101000a81548173ffffffffffffffffffffffffffffffffffffffff021916908373ffffffffffffffffffffffffffffffffffffffff16021790555061121b806100606000396000f3fe6080604052600436106100555760003560e01c80638da5cb5b1461005a578063b19871bd1461009b578063bfb231d21461016d578063cd31831e14610250578063ead4d3db1461028b578063eb86cf28146102b8575b600080fd5b34801561006657600080fd5b5061006f6102e6565b604051808273ffffffffffffffffffffffffffffffffffffffff16815260200191505060405180910390f35b3480156100a757600080fd5b5061016b600480360360408110156100be57600080fd5b81019080803590602001906401000000008111156100db57600080fd5b8201836020820111156100ed57600080fd5b8035906020019184600183028401116401000000008311171561010f57600080fd5b91908080601f016020809104026020016040519081016040528093929190818152602001838380828437600081840152601f19601f8201169050808301925050505050505091929192908035906020019092919050505061030a565b005b34801561017957600080fd5b506101a66004803603602081101561019057600080fd5b810190808035906020019092919050505061058f565b604051808473ffffffffffffffffffffffffffffffffffffffff1681526020018360028111156101d257fe5b815260200180602001828103825283818151815260200191508051906020019080838360005b838110156102135780820151818401526020810190506101f8565b50505050905090810190601f1680156102405780820380516001836020036101000a031916815260200191505b5094505050505060405180910390f35b34801561025c57600080fd5b506102896004803603602081101561027357600080fd5b810190808035906020019092919050505061067e565b005b34801561029757600080fd5b506102a06108cd565b60405180821515815260200191505060405180910390f35b6102e4600480360360208110156102ce57600080fd5b8101908080359060200190929190505050610923565b005b60008054906101000a900473ffffffffffffffffffffffffffffffffffffffff1681565b3373ffffffffffffffffffffffffffffffffffffffff1660008054906101000a900473ffffffffffffffffffffffffffffffffffffffff1673ffffffffffffffffffffffffffffffffffffffff16146103cb576040517f08c379a00000000000000000000000000000000000000000000000000000000081526004018080602001828103825260128152602001807f596f7572206e6f7420746865206f776e6572000000000000000000000000000081525060200191505060405180910390fd5b600030826002546040516103de90610c2f565b808473ffffffffffffffffffffffffffffffffffffffff1681526020018381526020018281526020019350505050604051809103906000f080158015610428573d6000803e3d6000fd5b5090508060016000600254815260200190815260200160002060000160006101000a81548173ffffffffffffffffffffffffffffffffffffffff021916908373ffffffffffffffffffffffffffffffffffffffff1602179055508260016000600254815260200190815260200160002060010190805190602001906104ae929190610c3c565b50600060016000600254815260200190815260200160002060000160146101000a81548160ff021916908360028111156104e457fe5b02179055507fa4035636e99f06b7651a604c1019fa4e8779fe68ef27eeb74dff2de348f6199b60025460016000600254815260200190815260200160002060000160149054906101000a900460ff16600281111561053e57fe5b83604051808481526020018381526020018273ffffffffffffffffffffffffffffffffffffffff168152602001935050505060405180910390a1600260008154809291906001019190505550505050565b60016020528060005260406000206000915090508060000160009054906101000a900473ffffffffffffffffffffffffffffffffffffffff16908060000160149054906101000a900460ff1690806001018054600181600116156101000203166002900480601f0160208091040260200160405190810160405280929190818152602001828054600181600116156101000203166002900480156106745780601f1061064957610100808354040283529160200191610674565b820191906000526020600020905b81548152906001019060200180831161065757829003601f168201915b5050505050905083565b3373ffffffffffffffffffffffffffffffffffffffff1660008054906101000a900473ffffffffffffffffffffffffffffffffffffffff1673ffffffffffffffffffffffffffffffffffffffff161461073f576040517f08c379a00000000000000000000000000000000000000000000000000000000081526004018080602001828103825260128152602001807f596f7572206e6f7420746865206f776e6572000000000000000000000000000081525060200191505060405180910390fd5b6001600281111561074c57fe5b6001600083815260200190815260200160002060000160149054906101000a900460ff16600281111561077b57fe5b146107d1576040517f08c379a00000000000000000000000000000000000000000000000000000000081526004018080602001828103825260228152602001806111c46022913960400191505060405180910390fd5b60026001600083815260200190815260200160002060000160146101000a81548160ff0219169083600281111561080457fe5b02179055507fa4035636e99f06b7651a604c1019fa4e8779fe68ef27eeb74dff2de348f6199b816001600084815260200190815260200160002060000160149054906101000a900460ff16600281111561085a57fe5b6001600085815260200190815260200160002060000160009054906101000a900473ffffffffffffffffffffffffffffffffffffffff16604051808481526020018381526020018273ffffffffffffffffffffffffffffffffffffffff168152602001935050505060405180910390a150565b60003373ffffffffffffffffffffffffffffffffffffffff1660008054906101000a900473ffffffffffffffffffffffffffffffffffffffff1673ffffffffffffffffffffffffffffffffffffffff1614905090565b60006001600083815260200190815260200160002060000160009054906101000a900473ffffffffffffffffffffffffffffffffffffffff1690503373ffffffffffffffffffffffffffffffffffffffff168173ffffffffffffffffffffffffffffffffffffffff16146109e2576040517f08c379a000000000000000000000000000000000000000000000000000000000815260040180806020018281038252602b815260200180611199602b913960400191505060405180910390fd5b348173ffffffffffffffffffffffffffffffffffffffff1663d73cdfbe6040518163ffffffff1660e01b815260040160206040518083038186803b158015610a2957600080fd5b505afa158015610a3d573d6000803e3d6000fd5b505050506040513d6020811015610a5357600080fd5b810190808051906020019092919050505014610ad7576040517f08c379a00000000000000000000000000000000000000000000000000000000081526004018080602001828103825260128152602001807f4e6f742046756c6c79205061696420796574000000000000000000000000000081525060200191505060405180910390fd5b60006002811115610ae457fe5b6001600084815260200190815260200160002060000160149054906101000a900460ff166002811115610b1357fe5b14610b69576040517f08c379a00000000000000000000000000000000000000000000000000000000081526004018080602001828103825260228152602001806111c46022913960400191505060405180910390fd5b600180600084815260200190815260200160002060000160146101000a81548160ff02191690836002811115610b9b57fe5b02179055507fa4035636e99f06b7651a604c1019fa4e8779fe68ef27eeb74dff2de348f6199b826001600085815260200190815260200160002060000160149054906101000a900460ff166002811115610bf157fe5b83604051808481526020018381526020018273ffffffffffffffffffffffffffffffffffffffff168152602001935050505060405180910390a15050565b6104b180610ce883390190565b828054600181600116156101000203166002900490600052602060002090601f016020900481019282610c725760008555610cb9565b82601f10610c8b57805160ff1916838001178555610cb9565b82800160010185558215610cb9579182015b82811115610cb8578251825591602001919060010190610c9d565b5b509050610cc69190610cca565b5090565b5b80821115610ce3576000816000905550600101610ccb565b509056fe608060405234801561001057600080fd5b506040516104b13803806104b18339818101604052606081101561003357600080fd5b8101908080519060200190929190805190602001909291908051906020019092919050505082600360006101000a81548173ffffffffffffffffffffffffffffffffffffffff021916908373ffffffffffffffffffffffffffffffffffffffff16021790555081600081905550806002819055505050506103f8806100b96000396000f3fe6080604052600436106100385760003560e01c80632986c0e51461030e578063627cf44814610339578063d73cdfbe14610364576102ff565b366102ff576000543414610097576040517f08c379a00000000000000000000000000000000000000000000000000000000081526004018080602001828103825260218152602001806103a26021913960400191505060405180910390fd5b60006001541461010f576040517f08c379a00000000000000000000000000000000000000000000000000000000081526004018080602001828103825260158152602001807f4974656d20697320616c7265616479207061696421000000000000000000000081525060200191505060405180910390fd5b346001600082825401925050819055506000600360009054906101000a900473ffffffffffffffffffffffffffffffffffffffff1673ffffffffffffffffffffffffffffffffffffffff1634600254604051602401808281526020019150506040516020818303038152906040527feb86cf28000000000000000000000000000000000000000000000000000000007bffffffffffffffffffffffffffffffffffffffffffffffffffffffff19166020820180517bffffffffffffffffffffffffffffffffffffffffffffffffffffffff83818316178352505050506040518082805190602001908083835b6020831061021e57805182526020820191506020810190506020830392506101fb565b6001836020036101000a03801982511681845116808217855250505050505090500191505060006040518083038185875af1925050503d8060008114610280576040519150601f19603f3d011682016040523d82523d6000602084013e610285565b606091505b50509050806102fc576040517f08c379a00000000000000000000000000000000000000000000000000000000081526004018080602001828103825260158152602001807f44656c697665727920646964206e6f7420776f726b000000000000000000000081525060200191505060405180910390fd5b50005b34801561030b57600080fd5b50005b34801561031a57600080fd5b5061032361038f565b6040518082815260200191505060405180910390f35b34801561034557600080fd5b5061034e610395565b6040518082815260200191505060405180910390f35b34801561037057600080fd5b5061037961039b565b6040518082815260200191505060405180910390f35b60025481565b60015481565b6000548156fe576520646f6e277420737570706f7274207061727469616c207061796d656e7473a26469706673582212203a17033a36e99af13162b7a68d32fe13cb5426a48f100642a1e57203e9b9e9fe64736f6c634300070400334f6e6c79206974656d732061726520616c6c6f77656420746f20757064617465207468656d73656c7665734974656d206973206675727468657220696e2074686520737570706c79636861696ea26469706673582212205bff3498d100b741adb4a6aa03138e8320a950e996bd53a5e2f47f77cf59218264736f6c63430007040033",
  "immutableReferences": {},
  "source": "//\r\npragma solidity ^ 0.7.0;\r\n\r\nimport \"./item.sol\";\r\nimport \"./ownable.sol\";\r\n\r\ncontract Itemmanager is Ownable{\r\n    \r\n    enum SupplyChainSteps{Created,Paid,Deliverd}\r\n    \r\n    struct N_items{\r\n        Item _item;\r\n        Itemmanager.SupplyChainSteps _steps;\r\n        string _identifier;\r\n    } \r\n    \r\n    mapping(uint => N_items) public items;\r\n    uint index;\r\n    \r\n    event SupplyChainStep(uint _itemindexed ,uint _step,address _address);\r\n    \r\n    function createitem(string memory _identifiers,uint _priceinweis) public Onlyowner{\r\n        Item item =new Item(this,_priceinweis,index); \r\n        items[index]._item=item;\r\n        items[index]._identifier=_identifiers;\r\n        items[index]._steps=SupplyChainSteps.Created;\r\n        emit SupplyChainStep(index,uint(items[index]._steps),address(item));\r\n        index++; \r\n    }\r\n    \r\n    function triggerpayment(uint256 _index) public payable{\r\n        Item item=items[_index]._item;\r\n        require(address(item)==msg.sender,\"Only items are allowed to update themselves\");\r\n        require(item.priceinwei()==msg.value,\"Not Fully Paid yet\");\r\n        require(items[_index]._steps==SupplyChainSteps.Created,\"Item is further in the supplychain\");\r\n        items[_index]._steps=SupplyChainSteps.Paid;\r\n        emit SupplyChainStep(_index,uint(items[_index]._steps),address(item));\r\n    }\r\n    \r\n    function triggerDelivery(uint _index) public Onlyowner{\r\n         require(items[_index]._steps==SupplyChainSteps.Paid,\"Item is further in the supplychain\");\r\n        items[_index]._steps=SupplyChainSteps.Deliverd;\r\n         emit SupplyChainStep(_index,uint(items[_index]._steps),address(items[_index]._item));\r\n    }\r\n    \r\n    \r\n}\r\n",
  "sourcePath": "C:\\Users\\santo\\your_peoject_name\\contracts\\itemmanager.sol",
  "compiler": {
    "name": "solc",
    "version": "0.7.4+commit.3f05b770.Emscripten.clang"
  },
  "schemaVersion": "3.3.2",
  "updatedAt": "2020-11-14T10:51:33.880Z",
  "networkType": "ethereum",
  "devdoc": {
    "kind": "dev",
    "methods": {},
    "version": 1
  },
  "userdoc": {
    "kind": "user",
    "methods": {},
    "version": 1
  }
}