{
  "contractName": "Item",
  "abi": [
    {
      "inputs": [
        {
          "internalType": "contract Itemmanager",
          "name": "_parentContract",
          "type": "address"
        },
        {
          "internalType": "uint256",
          "name": "_priceinwei",
          "type": "uint256"
        },
        {
          "internalType": "uint256",
          "name": "_index",
          "type": "uint256"
        }
      ],
      "stateMutability": "nonpayable",
      "type": "constructor"
    },
    {
      "stateMutability": "nonpayable",
      "type": "fallback"
    },
    {
      "inputs": [],
      "name": "index",
      "outputs": [
        {
          "internalType": "uint256",
          "name": "",
          "type": "uint256"
        }
      ],
      "stateMutability": "view",
      "type": "function"
    },
    {
      "inputs": [],
      "name": "paidwei",
      "outputs": [
        {
          "internalType": "uint256",
          "name": "",
          "type": "uint256"
        }
      ],
      "stateMutability": "view",
      "type": "function"
    },
    {
      "inputs": [],
      "name": "priceinwei",
      "outputs": [
        {
          "internalType": "uint256",
          "name": "",
          "type": "uint256"
        }
      ],
      "stateMutability": "view",
      "type": "function"
    },
    {
      "stateMutability": "payable",
      "type": "receive"
    }
  ],
  "bytecode": "0x608060405234801561001057600080fd5b506040516104b13803806104b18339818101604052606081101561003357600080fd5b8101908080519060200190929190805190602001909291908051906020019092919050505082600360006101000a81548173ffffffffffffffffffffffffffffffffffffffff021916908373ffffffffffffffffffffffffffffffffffffffff16021790555081600081905550806002819055505050506103f8806100b96000396000f3fe6080604052600436106100385760003560e01c80632986c0e51461030e578063627cf44814610339578063d73cdfbe14610364576102ff565b366102ff576000543414610097576040517f08c379a00000000000000000000000000000000000000000000000000000000081526004018080602001828103825260218152602001806103a26021913960400191505060405180910390fd5b60006001541461010f576040517f08c379a00000000000000000000000000000000000000000000000000000000081526004018080602001828103825260158152602001807f4974656d20697320616c7265616479207061696421000000000000000000000081525060200191505060405180910390fd5b346001600082825401925050819055506000600360009054906101000a900473ffffffffffffffffffffffffffffffffffffffff1673ffffffffffffffffffffffffffffffffffffffff1634600254604051602401808281526020019150506040516020818303038152906040527feb86cf28000000000000000000000000000000000000000000000000000000007bffffffffffffffffffffffffffffffffffffffffffffffffffffffff19166020820180517bffffffffffffffffffffffffffffffffffffffffffffffffffffffff83818316178352505050506040518082805190602001908083835b6020831061021e57805182526020820191506020810190506020830392506101fb565b6001836020036101000a03801982511681845116808217855250505050505090500191505060006040518083038185875af1925050503d8060008114610280576040519150601f19603f3d011682016040523d82523d6000602084013e610285565b606091505b50509050806102fc576040517f08c379a00000000000000000000000000000000000000000000000000000000081526004018080602001828103825260158152602001807f44656c697665727920646964206e6f7420776f726b000000000000000000000081525060200191505060405180910390fd5b50005b34801561030b57600080fd5b50005b34801561031a57600080fd5b5061032361038f565b6040518082815260200191505060405180910390f35b34801561034557600080fd5b5061034e610395565b6040518082815260200191505060405180910390f35b34801561037057600080fd5b5061037961039b565b6040518082815260200191505060405180910390f35b60025481565b60015481565b6000548156fe576520646f6e277420737570706f7274207061727469616c207061796d656e7473a26469706673582212203a17033a36e99af13162b7a68d32fe13cb5426a48f100642a1e57203e9b9e9fe64736f6c63430007040033",
  "immutableReferences": {},
  "source": "//\r\npragma solidity ^ 0.7.0;\r\n\r\nimport \"./itemmanager.sol\";\r\n\r\ncontract Item{\r\n    uint public priceinwei;\r\n    uint public paidwei;\r\n    uint public index;\r\n    \r\n    Itemmanager parentContract;\r\n    \r\n    constructor(Itemmanager _parentContract,uint _priceinwei,uint _index)\r\n    {\r\n        parentContract=_parentContract;\r\n        priceinwei=_priceinwei;\r\n        index=_index;\r\n    }\r\n    receive() external payable {\r\n        require(msg.value == priceinwei, \"We don't support partial payments\");\r\n        require(paidwei == 0, \"Item is already paid!\");\r\n         paidwei += msg.value;\r\n        (bool success,) = address(parentContract).call{value :msg.value}(abi.encodeWithSignature(\"triggerpayment(uint256)\", index));\r\n        require(success, \"Delivery did not work\");\r\n    }\r\n\r\n fallback () external {\r\n\r\n }\r\n\r\n}",
  "sourcePath": "C:\\Users\\santo\\your_peoject_name\\contracts\\item.sol",
  "compiler": {
    "name": "solc",
    "version": "0.7.4+commit.3f05b770.Emscripten.clang"
  },
  "schemaVersion": "3.3.2",
  "updatedAt": "2020-11-14T10:51:26.517Z",
  "devdoc": {
    "kind": "dev",
    "methods": {},
    "version": 1
  },
  "userdoc": {
    "kind": "user",
    "methods": {},
    "version": 1
  }
}