{
  "contractName": "Ownable",
  "abi": [
    {
      "inputs": [],
      "stateMutability": "nonpayable",
      "type": "constructor"
    },
    {
      "inputs": [],
      "name": "owner",
      "outputs": [
        {
          "internalType": "address",
          "name": "",
          "type": "address"
        }
      ],
      "stateMutability": "view",
      "type": "function"
    },
    {
      "inputs": [],
      "name": "isowner",
      "outputs": [
        {
          "internalType": "bool",
          "name": "",
          "type": "bool"
        }
      ],
      "stateMutability": "view",
      "type": "function"
    }
  ],
  "bytecode": "0x608060405234801561001057600080fd5b50336000806101000a81548173ffffffffffffffffffffffffffffffffffffffff021916908373ffffffffffffffffffffffffffffffffffffffff16021790555061013f806100606000396000f3fe608060405234801561001057600080fd5b50600436106100365760003560e01c80638da5cb5b1461003b578063ead4d3db1461006f575b600080fd5b61004361008f565b604051808273ffffffffffffffffffffffffffffffffffffffff16815260200191505060405180910390f35b6100776100b3565b60405180821515815260200191505060405180910390f35b60008054906101000a900473ffffffffffffffffffffffffffffffffffffffff1681565b60003373ffffffffffffffffffffffffffffffffffffffff1660008054906101000a900473ffffffffffffffffffffffffffffffffffffffff1673ffffffffffffffffffffffffffffffffffffffff161490509056fea2646970667358221220f431c0abec56f9cc051943d6639c21e78bbb2e682d5d12fc39ea25eefe6a3f1f64736f6c63430007040033",
  "immutableReferences": {},
  "source": "pragma solidity ^ 0.7.0;\r\n\r\ncontract Ownable{\r\n    //defining owner variable for later use\r\n    address public owner;\r\n    //creating constructor to assign owner's address\r\n    constructor(){\r\n        owner=msg.sender;\r\n    }\r\n    //creating modifier so that later defined functions is only for owner use\r\n    modifier Onlyowner(){\r\n        require(owner==msg.sender,\"Your not the owner\");\r\n        _;\r\n    }\r\n    //Defining a function which returns bool of  owners address\r\n    \r\n    function isowner() public view returns(bool){\r\n      return (owner==msg.sender);\r\n    }\r\n    \r\n    \r\n}",
  "sourcePath": "C:\\Users\\santo\\your_peoject_name\\contracts\\ownable.sol",
  "compiler": {
    "name": "solc",
    "version": "0.7.4+commit.3f05b770.Emscripten.clang"
  },
  "schemaVersion": "3.3.2",
  "updatedAt": "2020-11-14T10:51:26.540Z",
  "devdoc": {
    "kind": "dev",
    "methods": {},
    "version": 1
  },
  "userdoc": {
    "kind": "user",
    "methods": {},
    "version": 1
  }
}